:020000040800F2
:1000000000C0012089280008652600086B2600082A
:1000100071260008772600087D26000800000000F1
:1000200000000000000000000000000001A2000825
:10003000832600080000000051A40008B9A40008AD
:10004000D9280008D9280008D9280008D92800088C
:10005000D9280008D9280008D9280008D92800087C
:1000600091260008D9280008D9280008D9280008B6
:10007000D9280008D9280008D9280008D92800085C
:10008000D9280008D9280008D9280008D92800084C
:10009000D9280008D9280008D92800089F26000878
:1000A000D9280008D9280008D9280008D92800082C
:1000B000D9280008D9280008D9280008D92800081C
:1000C000D9280008D9280008D9280008D92800080C
:1000D000D9280008D9280008D9280008D9280008FC
:1000E000AD260008D9280008D9280008D92800081A
:1000F000D9280008D9280008D9280008D9280008DC
:1001000000000000D928000800000000D9280008DD
:10011000D9280008D9280008C5260008D9280008D1
:10012000D9280008D9280008D9280008D9280008AB
:10013000D92800080000000000000000D9280008AD
:10014000D9280008D928000800000000000000009D
:10015000000000000000000000000000000000009F
:10016000000000000000000000000000D928000886
:10017000D9280008D9280008D9280008D92800085B
:10018000D9280008D928000800000000000000005D
:100190000000000000000000D9280008D92800084D
:1001A0000000000000000000D9280008D92800083D
:1001B000D9280008D9280008D9280008D92800081B
:1001C000D9280008D9280008D9280008D92800080B
:0801D000D9280008D928000815
:1001E00010B5054C237833B9044B13B10448AFF371
:1001F00000800123237010BD70000020000000006B
:10020000F8B9000808B5034B1BB103490348AFF325
:10021000008008BD0000000074000020F8B900084C
:10022000034613F8012B002AFBD1181A0138704736
:1002300001F0FF01102A2BDB10F0070F08D010F897
:10024000013B013A8B422DD010F0070F42B3F6D19B
:10025000F0B441EA012141EA014122F007047FF0B4
:1002600000070023F0E80256083C85EA010586EA0B
:10027000010685FA47F5A3FA87F586FA47F6A5FA47
:1002800087F68EB9EED1F0BC01F0FF0102F0070253
:1002900032B110F8013B013A83EA010313B1F8D1FE
:1002A0000020704701387047002D06BF35460338DF
:1002B000073815F0010F07D1013015F4807F02BF18
:1002C000013015F4C03F0130F0BC0138704700BF69
:1002D00053B94AB9002908BF00281CBF4FF0FF31AD
:1002E0004FF0FF3000F070B9ADF1080C6DE904CEAD
:1002F00000F006F8DDF804E0DDE9022304B0704701
:100300002DE9F047089E0D4604460F46002B4AD1C2
:100310008A42944665D9B2FA82F343B102FA03FCE9
:10032000C3F120029F4020FA02F217439C404FEA9B
:100330001C4E1FFA8CF5B7FBFEF1220C0EFB117759
:1003400042EA074201FB05F090420AD91CEB020287
:1003500001F1FF3780F01C81904240F2198102398F
:100360006244121AA4B2B2FBFEF00EFB102244EA61
:10037000024400FB05F5A5420AD91CEB040400F178
:10038000FF3280F00781A54240F2048164440238C4
:1003900040EA0140641B00211EB1DC400023C6E995
:1003A0000043BDE8F0878B4208D9002E00F0ED80B5
:1003B0000021C6E900050846BDE8F087B3FA83F1DD
:1003C000002949D1AB4202D3824200F2F880841A5C
:1003D00065EB030201201746002EE2D0C6E9004774
:1003E000DFE702B9FFDEB2FA82F3002B40F0908023
:1003F0008A1A4FEA1C471FFA8CFE0121B2FBF7F55F
:1004000007FB1520220C42EA00420EFB05F0904249
:1004100008D91CEB020205F1FF3802D2904200F22B
:10042000CB804546121AA4B2B2FBF7F007FB1022AC
:1004300044EA02440EFB00FEA64508D91CEB040466
:1004400000F1FF3202D2A64500F2BB801046A4EBB9
:100450000E0440EA05409FE7C1F120078B4022FAD5
:1004600007FC4CEA030C05FA01F420FA07F3FD40FF
:100470004FEA1C492343B5FBF9F81FFA8CFE09FB30
:1004800018551C0C44EA054408FB0EF5A54202FA77
:1004900001F200FA01F00BD91CEB040408F1FF3A59
:1004A00080F08880A54240F28580A8F1020864446B
:1004B000641B9DB2B4FBF9F309FB134445EA044401
:1004C00003FB0EFEA64508D91CEB040403F1FF351F
:1004D0006CD2A6456AD9023B644443EA0843A3FBB5
:1004E0000295A4EB0E04AC42C846AE4656D353D098
:1004F00056B1B0EB080264EB0E0404FA07F7CA40E9
:10050000CC401743C6E9007418460021BDE8F087C7
:10051000C3F1200102FA03FC20FA01F225FA01F1ED
:100520009D402A434FEA1C471FFA8CFEB1FBF7F0AF
:1005300007FB1015110C41EA054100FB0EF58D4239
:1005400004FA03F408D91CEB010100F1FF382FD2A3
:100550008D422DD902386144491B92B2B1FBF7F5A7
:1005600007FB151142EA014205FB0EF1914208D941
:100570001CEB020205F1FF3816D2914214D9023D5C
:100580006244521A45EA004138E73146304608E7EE
:100590003946E6E61046FBE64845A9D2B9EB020823
:1005A00065EB0C0E013BA3E74546EAE72B4694E7D3
:1005B0004046D1E7D0467BE7023D624432E7084639
:1005C0000AE76444023842E7704700BF80B483B052
:1005D00000AF03460A46FB801346BB80FA88BB88FF
:1005E00013443F2B01DCFB8803E0BB88C3F14003CD
:1005F0009BB218460C37BD465DF8047B704700007F
:1006000080B58EB004AFBA601A460346FB810B4634
:10061000BB811346FB800623FB61FB89FB84FA88C0
:10062000BB891344002B00DA3F339B119AB2FB893C
:1006300013447B837A8BFB8CD31A9BB201333B83AD
:100640000023BB8400233B6239E0FA8CFB6902FA89
:1006500003F31AB2B7F90C3013431BB2FB82BA8909
:10066000FB8811461846FFF7B1FF0346BB82BB8CDF
:10067000BA681344F98A4FF47A720292BA8A0192E4
:10068000009302230A46A221114804F0B9F9034657
:10069000002B01D001F092FBFB8C0133FB84002383
:1006A000BB81FA88BB8AD31AFB80BA8CBB8A1344FD
:1006B000BB84052002F0CAF93B6A01333B623B8BE5
:1006C0003A6A9A42C1DB00BF00BF2837BD4680BDF1
:1006D0006001002080B58EB004AFBA601A460346B0
:1006E000FB810B46BB811346FB800623FB61FB8924
:1006F000FB84FA88BB891344002B00DA3F339B113B
:100700009AB2FB8913447B837A8BFB8CD31A9BB2FE
:1007100001333B830023BB8400233B6231E0FA8C2E
:10072000FB6902FA03F31AB2B7F90C3013431BB298
:10073000FB82BA89FB8811461846FFF747FF03463C
:10074000BB82BB8CBA681344F98A4FF47A72029266
:10075000BA8A0192009302230A46A221164804F0A5
:1007600063FAFB8C0133FB840023BB81FA88BB8ACC
:10077000D31AFB80BA8CBB8A1344BB843B6A013317
:100780003B623B8B3A6A9A42C9DBB868FFF748FD87
:1007900003469AB24FF0FF33B968084807F0DDFF0F
:1007A0004FF0FF3303220649044807F0D6FF00BF8D
:1007B0002837BD4680BD00BF60010020F801002041
:1007C0000000002080B598B004AF0346FB800623EC
:1007D000FB64FA88FB6C02FA03F3A7F84A3007F1CE
:1007E00008034022FF2118460AF0C5FAB7F84A204C
:1007F0004FF47A7302934023019307F108030093A7
:100800000223A221044804F0FBF8052002F01EF99F
:1008100000BF5037BD4680BD6001002080B582B06A
:1008200000AF4021294803F07BFD0346002B48D050
:10083000274B284A4021254803F098FC4FF4FA70D2
:1008400002F004F9244B00221A7000237B6019E0A7
:100850001F4A7B6813441B78002B05D11E4B1B7865
:100860000133DAB21C4B1A70194A7B6813441B78A7
:100870000133D9B2194A7B6813440A461A707B685F
:1008800001337B607B68072BE2DD144A14490F4873
:1008900003F028FC0346002B01D001F08FFA4FF43F
:1008A000FA7002F0D3F80C4B1B78082B03D10D4BD8
:1008B00006221A6002E00B4B07221A60064B002248
:1008C0001A7000BF0837BD4680BD00BFFC00002085
:1008D000C4040020D40400208C000020CC0400209C
:1008E000FC0400202005002080B584B000AF7860B3
:1008F00039600023FB600BE0FB687A6813441978C9
:100900000E4AFB6813440A461A70FB680133FB6009
:10091000FA683B689A42EFDB084A0949094803F044
:10092000E1FB0346002B01D001F048FA4FF4FA70C6
:1009300002F08CF800BF1037BD4680BDCC0400200B
:10094000FC040020FC000020B0B594B000AF02F021
:1009500046F800F06FF800F005FE00F0B5F800F082
:100960002DF900F0B3F900F0F1F900F02FFA00F0E2
:1009700077FA00F05DFB00F0CBFB00F0AFFA00F07F
:100980003DFC00F0E5FC00F05BFD224B07F13C0470
:100990001D460FCD0FC42B68236007F13C030021D7
:1009A000184608F044FD03461B4A13601B4B07F131
:1009B00028041D460FCD0FC42B68236007F12803C0
:1009C0000021184608F033FD0346154A1360154B05
:1009D00007F114041D460FCD0FC42B68236007F1E7
:1009E00014030021184608F022FD03460E4A136046
:1009F0000E4B3C461D460FCD0FC42B6823603B4673
:100A00000021184608F013FD0346094A136008F058
:100A100007FDFEE718BA0008B404002030BA000849
:100A2000B804002050BA0008BC0400206CBA0008CA
:100A3000C004002080B594B000AF07F1180338223D
:100A4000002118460AF097F93B1D00221A605A60EF
:100A50009A60DA601A614FF4007004F03DFD0123E2
:100A6000BB614FF48033FB6102237B630323BB63D1
:100A70000123FB6308233B6402237B640223BB64E2
:100A80000223FB6407F11803184604F0D9FD03465E
:100A9000002B01D001F092F90F237B600323BB6090
:100AA0000023FB6000233B6100237B613B1D02218F
:100AB000184605F0DDF80346002B01D001F07EF961
:100AC00000BF5037BD4680BD80B58CB000AF07F188
:100AD000240300221A605A609A603B1D20220021E4
:100AE00018460AF048F9324B4FF0A0421A60304BDA
:100AF0004FF400325A602E4B00229A602C4B002299
:100B0000DA602B4B00221A61294B00225A61284BD4
:100B100004229A61264B00221A77254B00225A772D
:100B2000234B01221A62224B002283F82420204BFF
:100B30000022DA621E4B00221A631D4B002283F84A
:100B400038201B4B0022DA63194B002283F8402027
:100B5000174802F077F90346002B01D001F02EF977
:100B600000237B6207F124031946114802F070FF4D
:100B70000346002B01D001F021F90E4B7B600623C8
:100B8000BB600023FB600C4B3B6104237B610023B3
:100B9000BB613B1D1946064802F008FB0346002BCB
:100BA00001D001F00BF900BF3037BD4680BD00BF5A
:100BB000900000204000201900007F4080B500AF69
:100BC0003E4B23221A603D4B4FF080425A603B4B14
:100BD00000229A60394B4FF40022DA60374B002232
:100BE0001A61364B00225A61344B4FF400129A615D
:100BF000324B0022DA61314B00221A62304B232241
:100C00001A602F4B4FF080425A602D4B00229A60A1
:100C10002B4B4FF40022DA60294B00221A61284B3B
:100C200000225A61264B4FF400129A61254B264A46
:100C30001A60244B00225A60224B00229A60214BFA
:100C40000022DA601F4B00221A741E4B00225A74D5
:100C50001C4B00229A741B4B01225A61194B012232
:100C60009A61184B6E22DA61164B11221A62154BEB
:100C700001225A62134B01229A62124B2022DA623D
:100C8000104B01221A630F4B00225A630D4B0022B6
:100C90009A630C4B0022DA630A4803F0A1F803467A
:100CA000002B01D001F08AF8064803F0F3F903465F
:100CB000002B01D001F082F800BF80BDFC040020B1
:100CC000D4040020FC0000200064004080B500AF88
:100CD0001B4B1C4A1A601A4B1B4A5A60184B0022C5
:100CE0009A60174B0122DA60154B00221A61144BEF
:100CF00000225A61124B00229A61114B0022DA61E4
:100D00000F4B00221A620E4803F0EAFD0346002B47
:100D100001D001F053F80021094804F045FB0346D7
:100D2000002B01D001F04AF80021054804F087FBB0
:100D30000346002B01D001F041F800BF80BD00BF89
:100D400060010020005800407321600080B500AFB2
:100D50001B4B1C4A1A601A4B1B4A5A60184B002244
:100D60009A60174B0122DA60154B00221A61144B6E
:100D700000225A61124B00229A61114B0022DA6163
:100D80000F4B00221A620E4803F0AAFD0346002B07
:100D900001D001F013F80021094804F005FB0346D7
:100DA000002B01D001F00AF80021054804F047FBB0
:100DB0000346002B01D001F001F800BF80BD00BF49
:100DC000AC01002000780040BC7D701080B500AF01
:100DD000204B214A1A601F4B204A5A601D4B0022AB
:100DE0009A601C4B0022DA601A4B00221A61194BE0
:100DF0000C225A61174B00229A61164B00221A628C
:100E0000144B00225A62134B00229A62114807F0D9
:100E100054FC0346002B01D000F0D0FF00210D4808
:100E200008F01CFA0346002B01D000F0C7FF002198
:100E3000084808F051FA0346002B01D000F0BEFF2D
:100E4000044808F0D2F90346002B01D000F0B6FFA9
:100E500000BF80BDF8010020008000402433030063
:100E600080B500AF1B4B1C4A1A601A4B4FF48272BC
:100E70005A60184B00229A60164B4FF4E062DA6019
:100E8000144B00221A61134B00225A61114B4FF48C
:100E900080229A610F4B0022DA610E4B00221A6207
:100EA0000C4B00225A620B4B00229A62094B07221C
:100EB000DA62084B00221A63064B08225A6305487F
:100EC00005F05CFB0346002B01D000F077FF00BF6C
:100ED00080BD00BF880200200038004080B598B077
:100EE00000AF07F1540300221A605A609A6007F1BC
:100EF000380300221A605A609A60DA601A615A61F7
:100F00009A613B1D34220021184609F034FF464BFC
:100F1000464A1A60444B3F225A60434B00229A6073
:100F2000414B2722DA60404B00221A613E4B0022DF
:100F30005A613D4B00229A613B4805F091FC034603
:100F4000002B01D000F03AFF00237B650023BB6536
:100F50000023FB6507F154031946334807F002FAF2
:100F60000346002B01D000F029FF6023BB63002360
:100F7000FB6300233B6400237B640023BB640023EA
:100F8000FB6400233B6507F1380304221946264819
:100F900006F0E2F80346002B01D000F00FFF07F146
:100FA000380308221946204806F0D6F80346002BDD
:100FB00001D000F003FF07F138030C2219461A484C
:100FC00006F0CAF80346002B01D000F0F7FE00231C
:100FD0007B600023BB600023FB6000233B61002398
:100FE0007B614FF40053BB610023FB6100233B6234
:100FF00000237B624FF00073BB620023FB6200237F
:101000003B6300237B633B1D1946074807F038FA12
:101010000346002B01D000F0D1FE034801F0AEF9E9
:1010200000BF6037BD4680BDEC020020002C0140AF
:1010300080B58CB000AF07F1200300221A605A601F
:101040009A60DA6007F1140300221A605A609A600D
:101050003B1D00221A605A609A60DA602B4B4FF0F9
:1010600080421A60294B00225A60284B00229A6065
:10107000264B4FF0FF32DA60244B00221A61234BDB
:1010800000229A61214805F024FB0346002B01D081
:1010900000F094FE4FF480533B6207F120031946A1
:1010A0001A4806F06DF90346002B01D000F086FEC9
:1010B000164805F0D5FD0346002B01D000F07EFE5A
:1010C00000237B610023FB6107F1140319460F48DD
:1010D00007F048F90346002B01D000F06FFE002313
:1010E0007B600123BB600023FB6000233B613B1D51
:1010F00000221946054805F093FF0346002B01D056
:1011000000F05CFE00BF3037BD4680BD38030020D4
:1011100080B58EB000AF07F1280300221A605A6034
:101120009A60DA6007F11C0300221A605A609A6024
:101130003B4600221A605A609A60DA601A615A616E
:101140009A612C4B2C4A1A602A4B3F225A60294B39
:1011500000229A60274B2722DA60264B00221A6170
:10116000244B00229A61234805F0B3FA0346002B72
:1011700001D000F023FE4FF48053BB6207F1280337
:1011800019461C4806F0FCF80346002B01D000F07D
:1011900015FE184805F064FB0346002B01D000F053
:1011A0000DFE0023FB6100237B6207F11C0319463F
:1011B000104807F0D7F80346002B01D000F0FEFDE1
:1011C00060233B601E237B600023BB6000233B61E8
:1011D0003B4600221946074805F0BEFF0346002B98
:1011E00001D000F0EBFD034801F0C8F800BF38372C
:1011F000BD4680BD840300200004004080B598B047
:1012000000AF07F1540300221A605A609A6007F198
:10121000380300221A605A609A60DA601A615A61D3
:101220009A613B1D34220021184609F0A4FD464B6B
:10123000464A1A60444B3F225A60434B00229A6050
:10124000414B2722DA60404B00221A613E4B0022BC
:101250005A613D4B00229A613B4805F001FB034671
:10126000002B01D000F0AAFD00237B650023BB65A5
:101270000023FB6507F154031946334807F072F861
:101280000346002B01D000F099FD6023BB630023CF
:10129000FB6300233B6400237B640023BB640023C7
:1012A000FB6400233B6507F13803002219462648FA
:1012B00005F052FF0346002B01D000F07FFD07F13F
:1012C000380304221946204805F046FF0346002B48
:1012D00001D000F073FD07F13803082219461A48BF
:1012E00005F03AFF0346002B01D000F067FD002314
:1012F0007B600023BB600023FB6000233B61002375
:101300007B614FF40053BB610023FB6100233B6210
:1013100000237B624FF00073BB620023FB6200235B
:101320003B6300237B633B1D1946074807F0A8F881
:101330000346002B01D000F041FD034801F01EF8E8
:1013400000BF6037BD4680BDD0030020003401409F
:1013500080B594B000AF07F1340300221A605A60E0
:101360009A60DA601A615A619A613B463422002120
:10137000184609F000FD304B304A1A602E4B3F22D0
:101380005A602D4B00229A602B4B2722DA602A4BA1
:1013900000221A61284B00225A61274B00229A61D1
:1013A000254805F096F90346002B01D000F006FD14
:1013B000214805F055FA0346002B01D000F0FEFC51
:1013C00060237B630023BB630023FB6300233B6438
:1013D00000237B640023BB640023FB6407F1340318
:1013E00000221946144805F0B7FE0346002B01D031
:1013F00000F0E4FC00233B6000237B600023BB6023
:101400000023FB6000233B614FF400537B6100230A
:10141000BB6100233B633B461946074807F030F8A1
:101420000346002B01D000F0C9FC034800F0A6FFE2
:1014300000BF5037BD4680BD1C0400200044014061
:1014400080B598B000AF07F1540300221A605A60CB
:101450009A6007F1380300221A605A609A60DA60D5
:101460001A615A619A613B1D34220021184609F025
:1014700082FC3A4B3A4A1A60384B3F225A60374B4B
:1014800000229A60354B2722DA60344B00221A6121
:10149000324B00225A61314B00229A612F4805F0ED
:1014A000DFF90346002B01D000F088FC00237B65A8
:1014B0000023BB650023FB6507F154031946274849
:1014C00006F050FF0346002B01D000F077FC6023AC
:1014D000BB630023FB6300233B6400237B64002386
:1014E000BB640023FB6400233B6507F13803002243
:1014F00019461A4805F030FE0346002B01D000F0D3
:101500005DFC00237B600023BB600023FB600023A5
:101510003B6100237B614FF40053BB610023FB61FF
:1015200000233B6200237B624FF00073BB62002309
:10153000FB6200233B6300237B633B1D1946074886
:1015400006F09EFF0346002B01D000F037FC034855
:1015500000F014FF00BF6037BD4680BD6804002066
:101560000050014080B58AB000AF07F1140300229B
:101570001A605A609A60DA601A615A4BDB6C594AF9
:1015800043F02003D364574BDB6C03F020033B6133
:101590003B69544BDB6C534A43F00403D364514B17
:1015A000DB6C03F00403FB60FB684E4BDB6C4D4AC5
:1015B00043F00103D3644B4BDB6C03F00103BB60CE
:1015C000BB68484BDB6C474A43F00203D364454B8E
:1015D000DB6C03F002037B607B68002292214FF0FA
:1015E000904003F033F900224FF400613E4803F0CD
:1015F0002DF900224FF480613C4803F027F94FF4A5
:1016000008637B614FF44413BB610023FB6107F166
:1016100014031946354802F07FFF04237B614FF421
:101620008813BB610023FB6107F1140319462F489F
:1016300002F072FF92237B610123BB610023FB61F7
:1016400000233B6207F1140319464FF0904002F06B
:1016500063FF4FF480637B614FF48813BB61002309
:10166000FB6107F1140319461F4802F055FF4FF4C0
:1016700000637B610123BB610023FB6100233B62AC
:1016800007F114031946184802F046FF4FF480632F
:101690007B610123BB610023FB6100233B6207F1F7
:1016A00014031946114802F037FF002205210820D3
:1016B00002F06EFB082002F085FB002205211720B6
:1016C00002F066FB172002F07DFB00220521282096
:1016D00002F05EFB282002F075FB00BF2837BD46F4
:1016E00080BD00BF00100240000400480008004810
:1016F00080B500AF012210214FF0904003F0A6F812
:1017000000BF80BD80B582B000AF42F228337B803D
:101710008021254803F082F80346002B02D000F018
:1017200063F83CE04FF400611F4803F077F803468C
:10173000002B02D000F03EF831E0002210214FF0E3
:10174000904003F083F800F095F800237B6019E0E7
:10175000164B1B889BB2042B03D1642007F08EFE2E
:101760000DE0134B1B88012B02D100F03DF80DE07A
:101770000F4B1B88022B02D100F01CF806E07B689F
:1017800001337B607B887A689A42E1DD074B1B88D6
:101790009BB2042B03D1FFF7ABFF00F0AFF800BF03
:1017A0000837BD4680BD00BF000800482605002060
:1017B0002405002080B500AFFFF79AFF00F044F841
:1017C00000BF80BD80B500AF00F0DCF8044B2822DC
:1017D0005A630021034805F09BF800BF80BD00BF9D
:1017E000005001406804002080B582B000AFFFF7D0
:1017F0007FFF00F0C7F80C21114805F089F80C2193
:101800000F4806F097FC00237B6010E00D4B282268
:101810001A644FF4FA7007F031FE0A4B00221A6482
:101820004FF4FA7007F02AFE7B6801337B607B6817
:10183000042BEBDDFFF7C6FF00BF0837BD4680BDB8
:10184000EC020020002C014080B500AF00F09AF8B7
:10185000064B1422DA630821054805F059F80821DF
:10186000034806F067FC00BF80BD00BF00340140A4
:10187000D003002080B500AF00F084F8064B0022B2
:101880009A630421054805F043F80421034806F053
:1018900051FC00BF80BD00BF00340140D0030020D8
:1018A00080B582B000AF00F06DF80421114805F05A
:1018B0002FF804210F4806F03DFC00237B6010E068
:1018C0000D4B28229A634FF4FA7007F0D7FD0A4BAC
:1018D00000229A634FF4FA7007F0D0FD7B68013361
:1018E0007B607B68042BEBDDFFF76CFF00BF0837E4
:1018F000BD4680BDD00300200034014080B584B0D7
:1019000000AF00F03FF804211C4805F001F8042165
:101910001A4806F00FFC0023FB6026E02823BB607A
:1019200008E0174ABB689363322001F08FF8BB6868
:10193000013BBB60BB68042BF3DC322001F086F86E
:1019400005237B6008E00E4A7B689363322001F038
:101950007DF87B6801337B607B68282BF3DD3220C8
:1019600001F074F8FB680133FB60FB68042BD5DDE4
:10197000FFF728FF00BF1037BD4680BDD003002011
:101980000034014080B500AF04210E4805F0CCF8CA
:1019900004210C4806F088FC08210A4805F0C4F828
:1019A0000821084806F080FC0021074805F0BCF833
:1019B0000C21064805F0B8F80C21044806F074FC28
:1019C00000BF80BDD003002068040020EC0200208E
:1019D00080B582B000AF1E23FB80094AFB885363A9
:1019E0000021084804F094FF012280214FF090402C
:1019F00002F02CFF00F01AF800BF0837BD4680BD8A
:101A0000000400408403002080B500AF0021064898
:101A100005F08AF8002280214FF0904002F016FF76
:101A200000F016F800BF80BD8403002080B500AF31
:101A300000F020F8044B14225A630021034804F0FC
:101A400067FF00BF80BD00BF00340140D00300200D
:101A500080B500AF00F00EF8044B1422DA630821C1
:101A6000034804F055FF00BF80BD00BF002C0140BB
:101A7000EC02002080B500AF0021044805F054F8C6
:101A80000821034805F050F800BF80BDD0030020B6
:101A9000EC02002080B584B000AF0346FB80002339
:101AA000FB60FB88042B22D13D4B00221A803D4B6A
:101AB0001B889BB2052B03D13A4B04221A8002E00B
:101AC000384B05221A80384B1B6807F10C0211466F
:101AD000184608F035FAFB68002B5DD0334B4FF009
:101AE00080521A60BFF34F8FBFF36F8F54E0FB88B3
:101AF000802B19D12A4B01221A802A4B05221A80E9
:101B0000294B1B6807F10C021146184608F018FA19
:101B1000FB68002B40D0254B4FF080521A60BFF37A
:101B20004F8FBFF36F8F37E0FB88B3F5006F19D18C
:101B30001B4B02221A801B4B05221A801A4B1B6872
:101B400007F10C021146184608F0FAF9FB68002B61
:101B500022D0164B4FF080521A60BFF34F8FBFF365
:101B60006F8F19E0FB88B3F5806F15D10C4B032202
:101B70001A800F4B1B6807F10C021146184608F03B
:101B8000DFF9FB68002B07D0084B4FF080521A603A
:101B9000BFF34F8FBFF36F8F00BF1037BD4680BDBF
:101BA0002405002026050020BC04002004ED00E0F0
:101BB000C004002080B582B000AF786002214FF0F1
:101BC000904002F05BFE4FF4FA7007F057FCF5E727
:101BD00080B5A0B000AF78602B4B07221A602A4B6B
:101BE0001B68062B4DD10023FB6717E008F092FF1E
:101BF0000246264B83FB0213D910D317C91A0B4692
:101C00009B000B449B00D11AC9B207F17002FB6F15
:101C100013440A461A70FB6F0133FB67FB6F072BF7
:101C2000E4DD07F1700308211846FEF75DFE07F1B9
:101C30007002082300210020FEF7E2FC07F10C02ED
:101C4000082300210020FEF745FD07F10C030821C1
:101C50001846FEF749FE0C4B07221A60002387F84E
:101C60007B300AE097F87B309BB21846FEF7AAFD5E
:101C700097F87B30013387F87B3097F87B30FA2B6D
:101C8000F0D9FEF7CBFDAAE720050020676666665F
:101C900080B584B000AF7860FFF72AFDFFF792FDB2
:101CA0004FF0FF31012008F0FFF8F860FB68002BCF
:101CB000F6D0274B1B88012B15D18021254802F037
:101CC000ADFD0346002B08D0234B05221A800A20C5
:101CD00007F0D4FBFFF788FDE2E70A2007F0CEFB10
:101CE000FFF770FDDCE71A4B1B88022B16D14FF46F
:101CF0000061184802F092FD0346002B08D0164BF5
:101D000005221A800A2007F0B9FBFFF753FDC7E749
:101D10000A2007F0B3FBFFF755FDC1E70C4B1B880A
:101D2000002BBDD110214FF0904002F077FD03460B
:101D3000002B02D0FFF7E6FCB2E7074B05221A8022
:101D40000A2007F09BFBFFF7D3FCFFF7A9FDA7E7ED
:101D500024050020000800482605002080B584B036
:101D600000AF7860FFF750FE4FF0FF31012008F020
:101D70009BF8F860FB68002BF6D080214FF0904074
:101D800002F04CFD0346002B02D0FFF73DFEEBE7CF
:101D9000FFF71EFEE8E7000080B582B000AF786074
:101DA0007B681B68044A934201D100F031FE00BFFA
:101DB0000837BD4680BD00BF0010004080B400AFB2
:101DC00072B600BFFEE7000080B582B000AF124BD4
:101DD0001B6E114A43F0010313660F4B1B6E03F099
:101DE00001037B607B680C4B9B6D0B4A43F0805377
:101DF0009365094B9B6D03F080533B603B68002269
:101E00000F216FF0010001F0C3FF03F009FC00BFD8
:101E10000837BD4680BD00BF0010024080B59EB0AF
:101E200000AF786007F1640300221A605A609A607C
:101E3000DA601A6107F1140350220021184608F0F5
:101E40009AFF7B681B68B3F1A04F33D14FF4004376
:101E50007B614FF000537B6507F11403184604F0D3
:101E600051F90346002B01D0FFF7A8FF134BDB6CA1
:101E7000124A43F40053D364104BDB6C03F4005359
:101E80003B613B690D4BDB6C0C4A43F00403D364AC
:101E90000A4BDB6C03F00403FB60FB6803237B66E7
:101EA0000323BB660023FB6607F16403194604485D
:101EB00002F032FB00BF7837BD4680BD0010024003
:101EC0000008004880B59EB000AF786007F1640359
:101ED00000221A605A609A60DA601A6107F11403EE
:101EE00050220021184608F046FF7B681B68204AF4
:101EF000934239D14FF480537B614FF00073BB6440
:101F000007F11403184604F0FDF80346002B01D036
:101F1000FFF754FF174B9B6D164A43F00073936510
:101F2000144B9B6D03F000733B613B69114BDB6C01
:101F3000104A43F00103D3640E4BDB6C03F0010342
:101F4000FB60FB684FF4C0537B660223BB66002333
:101F5000FB6600233B6709237B6707F1640319468F
:101F60004FF0904002F0D8FA00BF7837BD4680BDF0
:101F7000006400400010024080B5A0B000AF78605F
:101F800007F16C0300221A605A609A60DA601A61E5
:101F900007F11C0350220021184608F0ECFE7B6874
:101FA0001B684C4A934254D18023FB610023FB639E
:101FB00007F11C03184604F0A5F80346002B01D0D6
:101FC000FFF7FCFE444BDB6C434A43F00403D3644D
:101FD000414BDB6C03F00403BB61BB693E4BDB6C24
:101FE0003D4A43F00103D3643B4BDB6C03F0010338
:101FF0007B617B691023FB6612233B6700237B67B1
:102000000023BB670423FB6707F16C0319463348C1
:1020100002F082FA4FF48073FB6612233B670023C1
:102020007B670023BB670423FB6707F16C0319463A
:102030004FF0904002F070FA274B9B6D264A43F414
:1020400080039365244B9B6D03F480033B613B69E4
:102050003CE07B681B68224A934237D14FF480737F
:10206000FB6100233B6407F11C03184604F04AF8A7
:102070000346002B01D0FFF7A1FE174BDB6C164A7D
:1020800043F00403D364144BDB6C03F00403FB60E4
:10209000FB684FF44073FB6612233B6700237B67AA
:1020A0000023BB670823FB6707F16C0319460B4845
:1020B00002F032FA084B9B6D074A43F08043936568
:1020C000054B9B6D03F08043BB60BB6800BF80374E
:1020D000BD4680BD00580040001002400008004886
:1020E0000078004080B59EB000AF786007F16403CF
:1020F00000221A605A609A60DA601A6107F11403CC
:1021000050220021184608F036FE7B681B681F4AE3
:10211000934236D120237B610023FB6207F1140335
:10212000184603F0EFFF0346002B01D0FFF746FEF1
:10213000174BDB6D164A43F00103D365144BDB6D7F
:1021400003F001033B613B69114BDB6C104A43F028
:102150000103D3640E4BDB6C03F00103FB60FB68EF
:102160000C237B660223BB660023FB6600233B67D0
:102170000C237B6707F1640319464FF0904002F08F
:10218000CBF900BF7837BD4680BD00BF008000405E
:102190000010024080B58AB000AF786007F11403E8
:1021A00000221A605A609A60DA601A617B681B68C4
:1021B000174A934228D1174B9B6D164A43F480432C
:1021C0009365144B9B6D03F480433B613B69114B5A
:1021D000DB6C104A43F00203D3640E4BDB6C03F05C
:1021E0000203FB60FB684FF470437B610223BB6119
:1021F0000023FB6100233B6205237B6207F114038C
:102200001946054802F088F900BF2837BD4680BD51
:1022100000380040001002400004004880B487B03D
:1022200000AF78607B681B681C4A93420CD11C4B42
:102230001B6E1B4A43F400631366194B1B6E03F4B9
:1022400000637B617B6922E07B681B68154A9342CF
:102250000CD1134B1B6E124A43F400531366104B00
:102260001B6E03F400533B613B6910E07B681B6805
:102270000D4A93420BD10A4B1B6E094A43F480135B
:102280001366074B1B6E03F48013FB60FB6800BFF3
:102290001C37BD465DF8047B704700BF002C014031
:1022A00000100240003401400050014080B58CB065
:1022B00000AF786007F11C0300221A605A609A6030
:1022C000DA601A617B681B68B3F1804F29D1284B13
:1022D0009B6D274A43F001039365254B9B6D03F0EB
:1022E0000103BB61BB69224BDB6C214A43F0010354
:1022F000D3641F4BDB6C03F001037B617B692023FC
:10230000FB6102233B6200237B620023BB6201234B
:10231000FB6207F11C0319464FF0904002F0FCF8F5
:1023200022E07B681B68134A93420CD1104B9B6DD3
:102330000F4A43F0020393650D4B9B6D03F00203BC
:102340003B613B6910E07B681B680B4A93420BD1F1
:10235000074B1B6E064A43F400331366044B1B6E97
:1023600003F40033FB60FB6800BF3037BD4680BD1F
:1023700000100240000400400044014080B58EB0CF
:1023800000AF786007F1240300221A605A609A6057
:10239000DA601A617B681B68724A93423AD1724BC9
:1023A000DB6C714A43F00403D3646F4BDB6C03F0C6
:1023B00004033B623B6A6C4BDB6C6B4A43F00103EA
:1023C000D364694BDB6C03F00103FB61FB692023E1
:1023D0007B620223BB620023FB6200233B63062374
:1023E0007B6307F124031946604802F095F84FF427
:1023F000C0637B620223BB620023FB6200233B635A
:1024000006237B6307F1240319464FF0904002F046
:1024100083F8A3E07B681B68554A93421DD1524B59
:10242000DB6C514A43F00103D3644F4BDB6C03F088
:102430000103BB61BB6940237B620223BB620023B3
:10244000FB6200233B6302237B6307F124031946ED
:102450004FF0904002F060F880E07B681B68454ACE
:10246000934238D1404BDB6C3F4A43F00203D364C4
:102470003D4BDB6C03F002037B617B693A4BDB6C09
:10248000394A43F00403D364374BDB6C03F0040395
:102490003B613B6903237B620223BB620023FB6237
:1024A00000233B6304237B6307F12403194632486E
:1024B00002F032F840237B620223BB620023FB62FE
:1024C00000233B6304237B6307F124031946274859
:1024D00002F022F842E07B681B68284A93421CD134
:1024E000214BDB6C204A43F00203D3641E4BDB6CB0
:1024F00003F00203FB60FB6810237B620223BB62D4
:102500000023FB6200233B6301237B6307F1240369
:102510001946194802F000F820E07B681B68184A49
:1025200093421BD1104BDB6C0F4A43F00203D36480
:102530000D4BDB6C03F00203BB60BB6804237B62C2
:102540000223BB620023FB6200233B6303237B6304
:1025500007F124031946084801F0DEFF00BF3837B1
:10256000BD4680BD002C014000100240000800481C
:1025700000040040003401400004004800440140D1
:102580000050014080B58CB000AF78600023BB6282
:1025900000237B62002387F82F302D4B9B6D2C4A44
:1025A00043F0100393652A4B9B6D03F01003BB604F
:1025B000BB6807F10C0207F110031146184603F03F
:1025C0002BFD03F0FDFCB862BB6A224AA2FB032389
:1025D0009B0C013B7B62204B204A1A601E4B40F251
:1025E000E732DA601C4A7B6A53601B4B00221A6197
:1025F000194B00229A60184804F06BF8034687F8DC
:102600002F3097F82F30002B1BD1134804F0B8F867
:10261000034687F82F3097F82F30002B11D1362042
:1026200001F0D0FB7B680F2B08D800227968362098
:1026300001F0AEFB0A4A7B68136002E0012387F8D1
:102640002F3097F82F3018463037BD4680BD00BF79
:102650000010024083DE1B432805002000100040CC
:102660000800002080B400AFFEE780B400AFFEE7B2
:1026700080B400AFFEE780B400AFFEE780B400AFE7
:10268000FEE780B400AF00BFBD465DF8047B704735
:1026900080B500AF042002F00BF900BF80BD80B50B
:1026A00000AF802002F004F900BF80BD80B500AF0C
:1026B0004FF4806002F0FCF84FF4006002F0F8F88C
:1026C00000BF80BD80B500AF024804F02AFB00BF08
:1026D00080BD00BF2805002080B400AF012318464C
:1026E000BD465DF8047B704780B582B000AF78606E
:1026F000396008F0F5FB034616221A604FF0FF33ED
:1027000018460837BD4680BD80B582B000AF7860FE
:102710004FF0FF317868FFF7E7FFFEE780B586B03E
:1027200000AFF860B9607A6000237B610AE0AFF324
:1027300000800146BB685A1CBA60CAB21A707B6935
:1027400001337B617A697B689A42F0DB7B681846CB
:102750001837BD4680BD80B586B000AFF860B9605F
:102760007A6000237B6109E0BB685A1CBA601B7861
:102770001846AFF300807B6901337B617A697B681F
:102780009A42F1DB7B6818461837BD4680BD80B49D
:1027900083B000AF78604FF0FF3318460C37BD466A
:1027A0005DF8047B704780B483B000AF7860396017
:1027B0003B684FF400525A60002318460C37BD4660
:1027C0005DF8047B704780B483B000AF786001236C
:1027D00018460C37BD465DF8047B704780B485B061
:1027E00000AFF860B9607A60002318461437BD4620
:1027F0005DF8047B7047000080B586B000AF78605C
:10280000144A154BD31A7B617B693B61134B1B68E0
:10281000002B02D1114B124A1A60104B1A687B68C8
:1028200013443A699A4207D208F05AFB03460C2235
:102830001A604FF0FF3309E0084B1B68FB60074B41
:102840001A687B681344054A1360FB6818461837FA
:10285000BD4680BD00C001200004000074050020BA
:10286000402F002080B400AF064BD3F88830054AD3
:1028700043F47003C2F8883000BFBD465DF8047BA6
:10288000704700BF00ED00E00D4885460D480E4939
:102890000E4A002302E0D458C4500433C4188C42BA
:1028A000F9D30B4A0B4C002301E013600432A2421F
:1028B000FBD3FFF7D7FF08F019FBFEF745F8FEE75B
:1028C00000C001200000002070000020C8BB0008EC
:1028D00070000020402F0020FEE780B584B000AFDC
:1028E00078607B68002B04D172B600BFFFF766FAF0
:1028F000FEE77B681B7A012B04D972B600BFFFF795
:102900005DFAFEE77B681B7A5A1CD1B27A681172B5
:102910001946EFF311824FF0500383F31188BFF390
:102920006F8FBFF34F8FFA60BB60FA687B6843F824
:10293000212000BF1037BD4680BD80B584B000AFF8
:1029400078607B68002B04D172B600BFFFF736FABF
:10295000FEE77B681B7A013BDAB27B681A727B6800
:102960001B7A012B04D972B600BFFFF727FAFEE7E6
:102970007B681B7A1A467B6853F82230FB60FB6841
:1029800083F3118800BF00BF1037BD4680BD80B5FE
:1029900082B000AF78607B68002B04D172B600BFB4
:1029A000FFF70CFAFEE77B681846FFF796FF00BFBB
:1029B0000837BD4680BD80B582B000AF78607B68C7
:1029C000002B04D172B600BFFFF7F8F9FEE77B6871
:1029D0001846FFF7B2FF00BF0837BD4680BD80B57F
:1029E00082B000AF0023FB71032001F0C6F90F2075
:1029F000FFF7C8FD0346002B02D00123FB7101E065
:102A0000FFF7E2F9FB7918460837BD4680BD0000A4
:102A100080B400AF054B1A68054B1B681344034A8A
:102A2000136000BFBD465DF8047B70479005002031
:102A30000C00002080B400AF034B1B681846BD4655
:102A40005DF8047B704700BF9005002080B584B01E
:102A500000AF7860FFF7EEFFB8607B68FB60FB6853
:102A6000B3F1FF3F04D0094B1B68FA681344FB60C5
:102A700000BFFFF7DFFF0246BB68D31AFA689A422D
:102A8000F7D800BF00BF1037BD4680BD0C00002046
:102A900080B483B000AF786039607B689B6823F4B2
:102AA0007C123B681A437B689A6000BF0C37BD46B6
:102AB0005DF8047B704780B483B000AF7860396004
:102AC0007B689B6823F0E0723B681A437B689A60DE
:102AD00000BF0C37BD465DF8047B704780B483B0FF
:102AE00000AF78607B689B6803F0E07318460C3792
:102AF000BD465DF8047B704780B487B000AFF860D6
:102B0000B9607A603B60FB6860331A46BB689B0023
:102B100013447B617B691A68084B13407A6802F0A2
:102B2000F8413A680A43134343F000427B691A6054
:102B300000BF1C37BD465DF8047B704700F0FF0303
:102B400080B485B000AF786039607B6860331A4626
:102B50003B689B001344FB60FB681B6803F0F84371
:102B600018461437BD465DF8047B704780B487B0C3
:102B700000AFF860B9607A60FB6860331A46BB68E2
:102B80009B0013447B617B691B6823F000427B68D8
:102B90001A437B691A6000BF1C37BD465DF8047B91
:102BA000704780B487B000AFF860B9607A60FB68A6
:102BB00060331A46BB689B0013447B617B691B68CA
:102BC00023F080727B681A437B691A6000BF1C3750
:102BD000BD465DF8047B704780B487B000AFF860F5
:102BE000B9607A60FB6860331A46BB689B00134487
:102BF0007B617B691B6823F000727B681A437B69E9
:102C00001A6000BF1C37BD465DF8047B704780B476
:102C100083B000AF786039607B685B6923F0004265
:102C20003B681A437B685A6100BF0C37BD465DF8AC
:102C3000047B704780B487B000AFF860B9607A60F9
:102C4000FB6830331A46BB681B0A9B0003F00C0379
:102C500013447B617B691A68BB6803F01F031F2163
:102C600001FA03F3DB431A407B689B0E03F01F015C
:102C7000BB6803F01F0301FA03F31A437B691A6070
:102C800000BF1C37BD465DF8047B704780B487B039
:102C900000AFF860B9607A60FB6814331A46BB680D
:102CA0005B0E9B0003F0040313447B617B691A688D
:102CB000BB681B0D03F01F03072101FA03F3DB437D
:102CC0001A40BB681B0D03F01F03796801FA03F378
:102CD0001A437B691A6000BF1C37BD465DF8047B50
:102CE0007047000080B485B000AFF860B9607A60CA
:102CF0007B680F4A93420AD1FB68D3F8B020BB68C7
:102D0000C3F312031A43FB68C3F8B0200AE0FB6860
:102D1000D3F8B020BB68C3F31203DB431A40FB684F
:102D2000C3F8B02000BF1437BD465DF8047B704780
:102D300000007F4080B483B000AF78607B689B6800
:102D400023F0204323F03F037A68936000BF0C37E1
:102D5000BD465DF8047B704780B483B000AF7860F7
:102D60007B689B6803F00053B3F1005F01D101233E
:102D700000E0002318460C37BD465DF8047B704721
:102D800080B483B000AF78607B689B6823F0104309
:102D900023F03F0343F080527B689A6000BF0C37FA
:102DA000BD465DF8047B704780B483B000AF7860A7
:102DB0007B689B6803F08053B3F1805F01D10123EE
:102DC00000E0002318460C37BD465DF8047B7047D1
:102DD00080B483B000AF78607B689B6803F0010328
:102DE000012B01D1012300E0002318460C37BD461A
:102DF0005DF8047B704780B483B000AF78607B6877
:102E00009B6803F00403042B01D1012300E000239D
:102E100018460C37BD465DF8047B704780B483B01C
:102E200000AF78607B689B6803F00803082B01D132
:102E3000012300E0002318460C37BD465DF8047BF3
:102E40007047000090B589B000AF78600023FB7731
:102E50000023BB607B68002B01D10123A1E17B68CB
:102E60005B69002B7B68DB6D002B09D17868FEF76E
:102E7000D5FF7B6800221A667B68002283F8582001
:102E80007B681B681846FFF767FF0346002B04D0DA
:102E90007B681B681846FFF74DFF7B681B68184668
:102EA000FFF782FF0346002B15D17B681B6818468D
:102EB000FFF766FF9A4B1B689B099A4AA2FB032304
:102EC0009B0901335B00BB6002E0BB68013BBB6058
:102ED000BB68002BF9D17B681B681846FFF764FFBD
:102EE0000346002B0DD17B68DB6D43F010027B683D
:102EF000DA657B681B6E43F001027B681A6601236A
:102F0000FB777B681B681846FFF775FF78617B6865
:102F1000DB6D03F01003002B40F03A817B69002B3E
:102F200040F036817B68DB6D23F4817343F002024D
:102F30007B68DA657B681B681846FFF749FF034624
:102F4000002B37D17B681B68B3F1A04F04D07B689E
:102F50001B68754A93420FD14FF0A040FFF738FF2E
:102F600004467148FFF734FF03462343002B0CBF90
:102F700001230023DBB208E06C48FFF729FF03467A
:102F8000002B0CBF01230023DBB2002B12D07B6887
:102F90001B68B3F1A04F04D07B681B68624A934260
:102FA00001D1634A00E0634A7B685B6819461046BA
:102FB000FFF76EFD7B685B7F5A037B68DB6B1A4310
:102FC0007B68DB681A437B689B681A437B6893F8CD
:102FD00024301B041343BB617B6893F82430012B1E
:102FE00006D17B689B6A013B5B04BA691343BB61F2
:102FF0007B68DB6A002B09D07B68DB6A03F478729C
:103000007B681B6B1343BA691343BB617B681B6806
:10301000DA68494B13407A681268B9690B43D36088
:103020007B681B681B6923F040617B685A6B7B6877
:103030001B680A431A617B681B681846FFF7DBFEB2
:1030400038617B681B681846FFF7E8FEF8603B694B
:10305000002B7BD1FB68002B78D17B681B7F9A0308
:103060007B6893F838305B001343BB617B681B6857
:10307000DB6823F4804323F002037A681268B9699D
:103080000B43D3607B681B69002B17D07B681B68E0
:103090001A697B681B6842F480321A617B681B687E
:1030A000D3F8C03023F47F5323F03F037A681169CB
:1030B0007A6812680B43C2F8C03013E07B681B6863
:1030C0001A697B681B6822F480321A617B681B686E
:1030D000D3F8C0307A68126823F47F5323F03F039B
:1030E000C2F8C0307B6893F84030012B26D17B6852
:1030F0001B681B6923F4FF6323F004037A68516C97
:103100007A68926C11437A68D26C11437A68126DB6
:103110000A431A437B681B6842F001021A6115E0FA
:1031200004000020632D3E05000100500004005003
:1031300000030050000700500740F0FF7B681B6849
:103140001A697B681B6822F001021A617B685B695F
:10315000012B0CD17B681B681B6B23F00F017B6874
:103160001B6A5A1E7B681B680A431A6307E07B6868
:103170001B681A6B7B681B6822F00F021A637B685E
:10318000DB6D23F0030343F001027B68DA6507E09F
:103190007B68DB6D43F010027B68DA650123FB7707
:1031A000FB7F18462437BD4690BD00BF80B5B6B042
:1031B00000AF78603960002387F8D7300023FB60C8
:1031C0007B6893F85830012B02D1022300F004BC35
:1031D0007B68012283F858207B681B681846FFF73C
:1031E0000AFE0346002B40F0E8837B6818683B68C2
:1031F00059683B681B681A46FFF71CFD7B681B6813
:103200001846FFF7F8FDC7F8D0007B681B68184622
:10321000FFF704FEC7F8CC00D7F8D030002B40F001
:10322000D981D7F8CC30002B40F0D4813B689B6823
:10323000B3F1004F0FD17B6818683B681B68002210
:103240001946FFF723FD7B681B684FF000411846C5
:10325000FFF7DDFC0EE07B6818683B6819683B6887
:103260009B681A46FFF712FD7B681B680021184611
:10327000FFF7CDFC3B685A697B681B68DB68DB089D
:1032800003F003035B0002FA03F3C7F8C8303B689E
:103290001B69042B22D07B6818683B6819693B685E
:1032A0001A68D7F8C830FFF727FC7B6818683B68B6
:1032B00019693B689B691A46FFF773FC7B681868BD
:1032C0003B6819693B681B7F012B02D14FF00073EB
:1032D00000E000231A46FFF77FFC7BE17B681B6858
:1032E00000211846FFF72CFC0346C3F31203002B02
:1032F0000AD17B681B6800211846FFF721FC0346B2
:103300009B0E03F01F021EE07B681B68002118461D
:10331000FFF716FC0346C7F8BC30D7F8BC3093FA69
:10332000A3F3C7F8B830D7F8B830C7F8C030D7F82B
:10333000C030002B01D1202304E0D7F8C030B3FA0D
:1033400083F3DBB21A463B681B68C3F31203002BFE
:1033500005D13B681B689B0E03F01F0318E03B6818
:103360001B68C7F8B030D7F8B03093FAA3F3C7F8AA
:10337000AC30D7F8AC30C7F8B430D7F8B430002B45
:1033800001D1202304E0D7F8B430B3FA83F3DBB2E1
:103390009A4206D17B681B68002200211846FFF77D
:1033A000E5FB7B681B6801211846FFF7C9FB034654
:1033B000C3F31203002B0AD17B681B680121184656
:1033C000FFF7BEFB03469B0E03F01F021EE07B6867
:1033D0001B6801211846FFF7B3FB0346C7F8A4306A
:1033E000D7F8A43093FAA3F3C7F8A030D7F8A030E9
:1033F000C7F8A830D7F8A830002B01D1202304E06B
:10340000D7F8A830B3FA83F3DBB21A463B681B68DF
:10341000C3F31203002B05D13B681B689B0E03F01E
:103420001F0318E03B681B68C7F89830D7F898303E
:1034300093FAA3F3C7F89430D7F89430C7F89C30C8
:10344000D7F89C30002B01D1202304E0D7F89C3022
:10345000B3FA83F3DBB29A4206D17B681B68002281
:1034600001211846FFF782FB7B681B680221184682
:10347000FFF766FB0346C3F31203002B0AD17B68F8
:103480001B6802211846FFF75BFB03469B0E03F007
:103490001F021EE07B681B6802211846FFF750FBE5
:1034A0000346C7F88C30D7F88C3093FAA3F3C7F8EB
:1034B0008830D7F88830C7F89030D7F89030002B94
:1034C00001D1202304E0D7F89030B3FA83F3DBB2C4
:1034D0001A463B681B68C3F31203002B05D13B68F7
:1034E0001B689B0E03F01F0316E03B681B68C7F8C0
:1034F0008030D7F8803093FAA3F3FB67FB6FC7F8EF
:103500008430D7F88430002B01D1202304E0D7F891
:103510008430B3FA83F3DBB29A4206D17B681B682E
:10352000002202211846FFF721FB7B681B6803215C
:103530001846FFF705FB0346C3F31203002B0AD11D
:103540007B681B6803211846FFF7FAFA03469B0EB7
:1035500003F01F0217E07B681B6803211846FFF782
:10356000EFFA03467B677B6F93FAA3F33B673B6FEE
:10357000BB67BB6F002B01D1202303E0BB6FB3FA05
:1035800083F3DBB21A463B681B68C3F31203002BBC
:1035900005D13B681B689B0E03F01F0311E03B68DD
:1035A0001B68BB66BB6E93FAA3F37B667B6EFB6600
:1035B000FB6E002B01D1202303E0FB6EB3FA83F3F3
:1035C000DBB29A4206D17B681B68002203211846B1
:1035D000FFF7CCFA7B681B681846FFF7F9FB034638
:1035E000002B40F03D817B6818683B6819683B6898
:1035F000DB681A46FFF776FB3B68DB68A24A93421A
:1036000040F02E817B6818683B681B68C3F3120387
:10361000002B0BD13B681B689B0E013303F01F038B
:10362000092B94BF01230023DBB219E03B681B6820
:10363000FB65FB6D93FAA3F3BB65BB6D3B663B6E0D
:10364000002B01D1202303E03B6EB3FA83F3DBB2FE
:10365000013303F01F03092B94BF01230023DBB2C6
:10366000002B79D03B681B68C3F31203002B07D1F2
:103670003B681B689B0E01339B0603F0F84215E084
:103680003B681B683B653B6D93FAA3F3FB64FB6CE3
:103690007B657B6D002B01D1202303E07B6DB3FAAA
:1036A00083F3DBB201339B0603F0F8423B681B68EF
:1036B000C3F31203002B09D13B681B689B0E013337
:1036C00003F01F03012101FA03F317E03B681B68B5
:1036D0007B647B6C93FAA3F33B643B6CBB64BB6C75
:1036E000002B01D1202303E0BB6CB3FA83F3DBB2E0
:1036F000013303F01F03012101FA03F342EA03013E
:103700003B681B68C3F31203002B0AD13B681B689C
:103710009B0E013303F01F0213465B0013441B058D
:1037200018E03B681B68BB63BB6B93FAA3F37B6336
:103730007B6BFB63FB6B002B01D1202303E0FB6B56
:10374000B3FA83F3DBB2013303F01F0213465B00CD
:1037500013441B050B437EE03B681B68C3F3120355
:10376000002B07D13B681B689B0E01339B0603F0BF
:10377000F84215E03B681B68FB62FB6A93FAA3F30F
:10378000BB62BB6A3B633B6B002B01D1202303E090
:103790003B6BB3FA83F3DBB201339B0603F0F842D1
:1037A0003B681B68C3F31203002B09D13B681B68FD
:1037B0009B0E013303F01F03012101FA03F317E00D
:1037C0003B681B683B623B6A93FAA3F3FB61FB69AE
:1037D0007B627B6A002B01D1202303E07B6AB3FA72
:1037E00083F3DBB2013303F01F03012101FA03F37A
:1037F00042EA03013B681B68C3F31203002B0DD19F
:103800003B681B689B0E013303F01F0213465B00ED
:1038100013441E3B1B0543F000731BE03B681B6811
:103820007B617B6993FAA3F33B613B69BB61BB6935
:10383000002B01D1202303E0BB69B3FA83F3DBB291
:10384000013303F01F0213465B0013441E3B1B05AC
:1038500043F000730B433A6892681946FFF716FA73
:103860003B681A68094B1340002B00F0AF807B685F
:103870001B68B3F1A04F04D07B681B68044A9342D5
:103880000AD1044B09E000BF00007F40000008801F
:103890000001005000030050514B1846FFF71EF97D
:1038A000C7F8C4003B681B684E4A934204D03B688B
:1038B0001B684D4A934234D1D7F8C43003F4000357
:1038C000002B2ED17B681B68B3F1A04F7ED17B68A3
:1038D0001B68B3F1A04F04D07B681B68434A934236
:1038E00001D1434A00E03E4AD7F8C43043F4000314
:1038F00019461046FFF7DFF83E4B1B689B093E4A0E
:10390000A2FB03239B095A1C13465B0013449B0034
:10391000FB6002E0FB68013BFB60FB68002BF9D118
:1039200054E03B681B68354A934220D1D7F8C43035
:1039300003F08073002B1AD17B681B68B3F1A04F92
:1039400044D17B681B68B3F1A04F04D07B681B682F
:10395000264A934201D1264A00E0214AD7F8C430D2
:1039600043F0807319461046FFF7A5F82EE03B6838
:103970001B68234A934229D1D7F8C43003F480034B
:10398000002B23D17B681B68184A93421ED07B68AA
:103990001B68B3F1A04F04D07B681B68134A9342A5
:1039A00001D1134A00E00E4AD7F8C43043F4800333
:1039B00019461046FFF77FF808E07B68DB6D43F09F
:1039C00020027B68DA65012387F8D7307B68002204
:1039D00083F8582097F8D7301846D837BD4680BDB1
:1039E00000070050000021C31000C09000010050EB
:1039F0000003005004000020632D3E05000052C764
:103A0000000084CB80B483B000AF78607B689B6893
:103A100003F00103012B01D1012300E0002318462C
:103A20000C37BD465DF8047B704780B483B000AFAF
:103A300078607B689B6803F00403042B01D10123A9
:103A400000E0002318460C37BD465DF8047B704744
:103A500090B5A1B000AF78603960002387F87F305F
:103A60007B6893F85830012B01D10223CBE07B68AF
:103A7000012283F8582000237B660023BB667B6805
:103A80001B68B3F1A04F02D1614BBB6001E0002382
:103A9000BB60BB68002B0BD17B68DB6D43F0200261
:103AA0007B68DA657B68002283F858200123AAE04E
:103AB000BB681846FFF7B9FFB8677B681B681846F4
:103AC000FFF7B3FF0346002B40F08C80BB6F002B49
:103AD00040F088807B681B68B3F1A04F04D07B68FE
:103AE0001B684B4A934201D14A4B00E04A4B7B672B
:103AF0003B681B68002B41D07B6F9B6823F46042BE
:103B00003B6859687B6893F838305B030B431A4372
:103B10007B6F9A607B681B68B3F1A04F04D07B6811
:103B20001B683B4A93420FD14FF0A040FFF76AFF5A
:103B300004463748FFF766FF03462343002B0CBFBC
:103B400001230023DBB208E03448FFF75BFF0346A4
:103B5000002B0CBF01230023DBB2002B4CD07B6F6A
:103B60009B6823F4716323F00F033A6811683A6885
:103B700092680A431A437B6F9A603DE07B6F9B68B3
:103B800023F460427B6F9A607B681B68B3F1A04F9F
:103B900004D07B681B681E4A93420FD14FF0A040AF
:103BA000FFF730FF04461A48FFF72CFF0346234374
:103BB000002B0CBF01230023DBB208E01748FFF7FE
:103BC00021FF0346002B0CBF01230023DBB2002B97
:103BD00012D07B6F9B6823F4716323F00F037A6F1D
:103BE000936009E07B68DB6D43F020027B68DA6557
:103BF000012387F87F3000E000BF7B68002283F854
:103C0000582097F87F3018468437BD4690BD00BFD6
:103C10000001005000030050000700500004005055
:103C200080B485B000AF78607B6803F00703FB6069
:103C30000C4BDB68BB60BA684FF6FF031340BB60F8
:103C4000FB681A02BB68134343F0BF6343F40033BD
:103C5000BB60044ABB68D36000BF1437BD465DF843
:103C6000047B704700ED00E080B400AF044BDB68DC
:103C70001B0A03F007031846BD465DF8047B704736
:103C800000ED00E080B483B000AF0346FB7197F90C
:103C90000730002B0BDBFB7903F01F02074997F974
:103CA00007305B09012000FA02F241F8232000BF2F
:103CB0000C37BD465DF8047B704700BF00E100E0B3
:103CC00080B483B000AF03463960FB7197F90730C9
:103CD000002B0ADB3B68DAB20C4997F90730120176
:103CE000D2B20B4483F800230AE03B68DAB20849F9
:103CF000FB7903F00F03043B1201D2B20B441A7696
:103D000000BF0C37BD465DF8047B704700E100E062
:103D100000ED00E080B489B000AFF860B9607A606F
:103D2000FB6803F00703FB61FB69C3F10703042B86
:103D300028BF0423BB61FB690433062B02D9FB694E
:103D4000033B00E000237B614FF0FF32BB6902FAC6
:103D500003F3DA43BB681A407B699A404FF0FF31A6
:103D60007B6901FA03F3D9437B680B401343184680
:103D70002437BD465DF8047B704780B582B000AF44
:103D800078607868FFF74CFF00BF0837BD4680BDFC
:103D900080B586B000AF0346B9607A60FB73FFF769
:103DA00063FF78617A68B9687869FFF7B3FF024604
:103DB00097F90F3011461846FFF782FF00BF1837FA
:103DC000BD4680BD80B582B000AF0346FB7197F958
:103DD00007301846FFF756FF00BF0837BD4680BDC5
:103DE00080B584B000AF78607B68002B01D10123DF
:103DF00047E17B6893F85C30DBB2002B06D17B682F
:103E0000002283F85D207868FEF75CF87B681B6809
:103E10009A697B681B6822F010029A61FEF70AFE1D
:103E2000F86012E0FEF706FE0246FB68D31A0A2B82
:103E30000BD97B681B6E43F001027B681A667B68B6
:103E4000032283F85C2001231BE17B681B689B69CC
:103E500003F00803082BE5D07B681B689A697B6830
:103E60001B6842F001029A61FEF7E4FDF86012E07F
:103E7000FEF7E0FD0246FB68D31A0A2B0BD97B68DC
:103E80001B6E43F001027B681A667B68032283F88D
:103E90005C200123F5E07B681B689B6903F001034C
:103EA000002BE5D07B681B689A697B681B6842F031
:103EB00002029A617B681B68744A934203D1744A78
:103EC0007B685B6813607B681B7C012B08D17B6877
:103ED0001B689A697B681B6822F040029A6107E0C0
:103EE0007B681B689A697B681B6842F040029A6194
:103EF0007B685B7C012B08D17B681B689A697B68B7
:103F00001B6842F480429A6107E07B681B689A69EB
:103F10007B681B6822F480429A617B689B7C012B42
:103F200008D17B681B689A697B681B6822F4805201
:103F30009A6107E07B681B689A697B681B6842F49A
:103F400080529A617B681B689B6923F440717B688F
:103F50009A687B681B680A439A617B681B689A6948
:103F60007B681B6822F0A4029A617B681B681A694F
:103F70007B681B6822F010021A617B68DB68012BEA
:103F800008D17B681B689A697B681B6842F0040251
:103F90009A612CE07B68DB68002B28D07B68DB68AB
:103FA000022B1CD07B681B689A697B681B6842F0F7
:103FB00080029A617B681B681A697B681B6842F003
:103FC00010021A617B68DB68032B10D17B681B68C9
:103FD0009A697B681B6842F020029A6107E07B685F
:103FE0001B689A697B681B6842F020029A617B68B3
:103FF0009B69013B5A067B68DB69013B1B021A4344
:104000007B681B6A013B42EA03017B685B69013BF9
:104010001A047B681B680A43DA617B689B68B3F506
:10402000407F15D17B689B6A5A1E7B68DB6A013B27
:104030001B021A437B681B6B013B1B0142EA030115
:104040007B685B6A013B1A047B681B680A43DA6081
:104050007B681B68D3F8C0107B68DA6B7B681B68D1
:104060000A43C3F8C020786800F078F97B68002222
:104070009A657B6800221A667B68012283F85C20BF
:10408000002318461037BD4680BD00BF00640040C5
:104090000065004080B483B000AF78607B6893F81F
:1040A0005C30DBB2012B10D17B68022283F85C20EC
:1040B0007B681B689A697B681B6822F001029A6121
:1040C0007B6800221A66002306E07B681B6E43F0C3
:1040D00004027B681A66012318460C37BD465DF85A
:1040E000047B704780B586B000AFF860B9607A6035
:1040F000FB6893F85C30DBB2022B2CD1FB681B68A9
:10410000D3F8C43003F40013002B07D0FB681B6EF8
:1041100043F40072FB681A66012323E0FB681B6806
:10412000D3F8C4301B0C03F003037B617B697A680E
:10413000B968F86800F074F9FB681B6801217A69B6
:1041400001FA02F2C3F8CC2001227B699A40FB6895
:104150009A65002306E0FB681B6E43F00802FB68CB
:104160001A66012318461837BD4680BD80B48BB04F
:1041700000AFF860B9607A603B60FB6893F85C3030
:10418000FB76FB7E022B40F0BC80BB68402B21D12C
:10419000FB681B68D3F8903003F00F03002B07D1A6
:1041A000FB681B6E43F48072FB681A660123AFE064
:1041B000FB681B68D3F890301B0A03F00303FB6114
:1041C000FB68996CFA691346DB001344DB000B446F
:1041D0007B6220E0FB681B68D3F8983003F00F0384
:1041E000002B07D1FB681B6E43F48072FB681A66D4
:1041F00001238DE0FB681B68D3F898301B0A03F09D
:104200000303FB61FB68D96CFA691346DB001344B6
:10421000DB000B447B627B6A1B6803F080427B6897
:104220005A607B685B68002B07D17B6A1B689B0C1C
:10423000C3F30A027B681A6005E07B6A1B6823F0FF
:1042400060427B681A607B6A1B6803F000527B68DF
:104250009A607B6A1B6803F000427B681A617B6A84
:1042600004337B627B6A1B689AB27B68DA617B6A83
:104270001B6803F470227B68DA607B6A1B6803F4B6
:1042800080127B685A617B6A1B6803F400127B68AA
:104290009A617B6A1B681B0E03F07F027B681A62BF
:1042A0007B6A1B68DA0F7B685A627B6A04337B6225
:1042B0007B6A7B6100233B620AE07A693B6A1A44AD
:1042C00039683B6A0B4412781A703B6A01333B62CF
:1042D0007B68DB681B0C114AD35C1A463B6A93422D
:1042E000EBD3BB68402B05D1FB681B68FA69C3F8A8
:1042F000942004E0FB681B68FA69C3F89C20002343
:1043000006E0FB681B6E43F00802FB681A66012397
:1043100018462C37BD465DF8047B7047A0BA0008EC
:1043200080B485B000AF786039603B68402B07D11E
:104330007B681B68D3F8903003F00F03FB6006E046
:104340007B681B68D3F8983003F00F03FB60FB68B1
:1043500018461437BD465DF8047B704780B485B0BD
:1043600000AF78602C4BBB607B681B682B4A934284
:1043700003D1BB6803F55473BB607B68BA681A64E9
:104380007B681B68D3F8803023F4F8117B685B6B83
:104390001A047B681B680A43C3F88020BB6803F1DA
:1043A00070027B685A647B681B68D3F8803023F006
:1043B00070617B689B6B1A067B681B680A43C3F8B5
:1043C0008020BB6803F1B0027B689A64BB6803F588
:1043D000C4727B68DA64BB6803F518727B681A657F
:1043E000BB6803F51E727B685A65BB68FB6005E01D
:1043F000FB6800221A60FB680433FB60BB6803F5AE
:104400005473FA689A42F3D300BF00BF1437BD4615
:104410005DF8047B704700BF00A4004000680040C6
:1044200080B489B000AFF860B9607A603B60BB6867
:104430005B68002B0AD1BB681A69BB689B681A438A
:10444000BB681B689B041343FB610AE0BB681A69E5
:10445000BB689B681A43BB681B68134343F08043E7
:10446000FB61BB681B6A1A06BB68DB691A43BB6841
:104470009B691A43BB685B691A43BB68DB681343DB
:104480003B61FB68596D3A681346DB001344DB005F
:104490000B44BB61BB69FA691A60BB690433BB6139
:1044A000BB693A691A60BB690433BB6100237B6155
:1044B00020E07B6903337A6813441B781A067B6912
:1044C000023379680B441B781B041A437B69013360
:1044D00079680B441B781B02134379687A690A4494
:1044E00012781A43BB691A60BB690433BB617B69EC
:1044F00004337B61BB68DB681B0C064AD35C1A463D
:104500007B699342D5D300BF00BF2437BD465DF819
:10451000047B7047A0BA000880B487B000AF786011
:10452000396000237B615AE13B681A6801217B698D
:1045300001FA03F31340FB60FB68002B00F04C8191
:104540003B685B6803F00303012B05D03B685B68A5
:1045500003F00303022B30D17B689B683B617B69CE
:104560005B00032202FA03F3DB433A6913403B6129
:104570003B68DA687B695B0002FA03F33A6913432C
:104580003B617B683A699A607B685B683B610122AA
:104590007B6902FA03F3DB433A6913403B613B68F2
:1045A0005B681B0903F001027B6902FA03F33A69B5
:1045B00013433B617B683A695A603B685B6803F070
:1045C0000303032B17D07B68DB683B617B695B00CF
:1045D000032202FA03F3DB433A6913403B613B6871
:1045E0009A687B695B0002FA03F33A6913433B6103
:1045F0007B683A69DA603B685B6803F00303022B6F
:1046000023D17B69DA087B68083253F822303B619A
:104610007B6903F007039B000F2202FA03F3DB43DD
:104620003A6913403B613B681A697B6903F00703F1
:104630009B0002FA03F33A6913433B617B69DA0892
:104640007B680832396943F822107B681B683B613C
:104650007B695B00032202FA03F3DB433A691340F0
:104660003B613B685B6803F003027B695B0002FA15
:1046700003F33A6913433B617B683A691A603B680C
:104680005B6803F44033002B00F0A6805B4B1B6E8D
:104690005A4A43F001031366584B1B6E03F00103A3
:1046A000BB60BB68564A7B699B08023352F82330D3
:1046B0003B617B6903F003039B000F2202FA03F3C3
:1046C000DB433A6913403B617B68B3F1904F1FD0E5
:1046D0007B684C4A934219D07B684B4A934213D073
:1046E0007B684A4A93420DD07B68494A934207D07F
:1046F0007B68484A934201D105230AE0062308E07B
:10470000042306E0032304E0022302E0012300E087
:1047100000237A6902F00302920093403A6913433E
:104720003B6137497B699B0802333A6941F8232092
:10473000394B9B683B61FB68DB433A6913403B6143
:104740003B685B6803F48013002B03D03A69FB6875
:1047500013433B61304A3B6993602F4BDB683B61FD
:10476000FB68DB433A6913403B613B685B6803F4D9
:104770000013002B03D03A69FB6813433B61264AC0
:104780003B69D360244B5B683B61FB68DB433A6960
:1047900013403B613B685B6803F40033002B03D09C
:1047A0003A69FB6813433B611B4A3B6953601A4BF0
:1047B0001B683B61FB68DB433A6913403B613B6824
:1047C0005B6803F48033002B03D03A69FB68134322
:1047D0003B61114A3B6913607B6901337B613B6834
:1047E0001A687B6922FA03F3002B7FF49DAE00BFA9
:1047F00000BF1C37BD465DF8047B704700100240C7
:10480000000001400004004800080048000C004877
:1048100000100048001400480004014080B485B036
:1048200000AF78600B467B807B681A697B881340F9
:10483000002B02D00123FB7301E00023FB73FB7B01
:1048400018461437BD465DF8047B704780B483B0CA
:1048500000AF78600B467B8013467B707B78002B23
:1048600003D07A887B689A6102E07A887B689A62D2
:1048700000BF0C37BD465DF8047B704780B485B03F
:1048800000AF78600B467B807B685B69FB607A8851
:10489000FB6813401A04FB68D9437B880B401A431A
:1048A0007B689A6100BF1437BD465DF8047B704792
:1048B00080B582B000AF0346FB80084B5A69FB8885
:1048C0001340002B06D0054AFB885361FB8818462D
:1048D000FDF7E0F800BF0837BD4680BD0004014089
:1048E00080B582B000AF78607B68002B01D10123D6
:1048F00081E07B6893F84130DBB2002B06D17B6806
:10490000002283F840207868FDF736FB7B6824227C
:1049100083F841207B681B681A687B681B6822F05B
:1049200001021A607B685A687B681B6822F070621B
:104930001A617B681B689A687B681B6822F40042D6
:104940009A607B68DB68012B07D17B689A687B687B
:104950001B6842F400429A6006E07B689A687B68B4
:104960001B6842F404429A607B68DB68022B04D126
:104970007B681B684FF400625A607B681B685B6849
:104980007A68126843F0007343F4004353607B6815
:104990001B68DA687B681B6822F40042DA607B6877
:1049A0001A697B685B6942EA03017B689B691A02AA
:1049B0007B681B680A43DA607B68D9697B681A6A7E
:1049C0007B681B680A431A607B681B681A687B68EF
:1049D0001B6842F001021A607B6800225A647B68FF
:1049E000202283F841207B6800221A637B68002222
:1049F00083F84220002318460837BD4680BD0000DA
:104A000080B588B002AFF860084611461A460346E2
:104A10007B810B463B811346FB80FB6893F841305A
:104A2000DBB2202B40F0F9803B6A002B02D0BB8C1C
:104A3000002B05D1FB684FF400725A640123EDE0AE
:104A4000FB6893F84030012B01D10223E6E0FB68BC
:104A5000012283F84020FDF7EDFF78617B69009328
:104A6000192301224FF40041F86800F0C3FA03460D
:104A7000002B01D00123D1E0FB68212283F84120E3
:104A8000FB68402283F84220FB6800225A64FB68DE
:104A90003A6A5A62FB68BA8C5A85FB6800225A63EC
:104AA000F8883A8979897B690193BB6A0093034648
:104AB000F86800F0D3F90346002B05D0FB6800220C
:104AC00083F840200123A9E0FB685B8D9BB2FF2B9C
:104AD0000ED9FB68FF221A85FB681B8DDAB2798933
:104AE000002300934FF08073F86800F02BFC0FE078
:104AF000FB685B8D9AB2FB681A85FB681B8DDAB286
:104B00007989002300934FF00073F86800F01AFCD5
:104B10007A69B96AF86800F0ADFA0346002B01D053
:104B200001237BE0FB685B6A1A78FB681B689A626A
:104B3000FB685B6A5A1CFB685A62FB685B8D9BB220
:104B4000013B9AB2FB685A85FB681B8D013B9AB208
:104B5000FB681A85FB685B8D9BB2002B34D0FB6829
:104B60001B8D002B30D17B690093BB6A0022802112
:104B7000F86800F03FFA0346002B01D001234DE016
:104B8000FB685B8D9BB2FF2B0ED9FB68FF221A8559
:104B9000FB681B8DDAB27989002300934FF0807394
:104BA000F86800F0CFFB0FE0FB685B8D9AB2FB6802
:104BB0001A85FB681B8DDAB27989002300934FF0C8
:104BC0000073F86800F0BEFBFB685B8D9BB2002BA6
:104BD0009ED17A69B96AF86800F08CFA0346002B16
:104BE00001D001231AE0FB681B682022DA61FB6810
:104BF0001B685968FB681A680A4B0B405360FB68D6
:104C0000202283F84120FB68002283F84220FB68C1
:104C1000002283F84020002300E0022318461837C2
:104C2000BD4680BD00E800FE80B588B002AFF860E8
:104C3000084611461A4603467B810B463B811346C4
:104C4000FB80FB6893F84130DBB2202B40F0FD8005
:104C50003B6A002B02D0BB8C002B05D1FB684FF4C4
:104C600000725A640123F1E0FB6893F84030012B95
:104C700001D10223EAE0FB68012283F84020FDF71E
:104C8000D9FE78617B690093192301224FF400411A
:104C9000F86800F0AFF90346002B01D00123D5E0FE
:104CA000FB68222283F84120FB68402283F84220DF
:104CB000FB6800225A64FB683A6A5A62FB68BA8C45
:104CC0005A85FB6800225A63F8883A8979897B699A
:104CD0000193BB6A00930346F86800F013F903469A
:104CE000002B05D0FB68002283F840200123ADE0B3
:104CF000FB685B8D9BB2FF2B0ED9FB68FF221A85E8
:104D0000FB681B8DDAB27989524B00934FF08073A8
:104D1000F86800F017FB0FE0FB685B8D9AB2FB6848
:104D20001A85FB681B8DDAB279894A4B00934FF0E4
:104D30000073F86800F006FB7B690093BB6A0022F1
:104D40000421F86800F056F90346002B01D0012336
:104D50007CE0FB681B685A6AFB685B6AD2B21A7017
:104D6000FB685B6A5A1CFB685A62FB681B8D013B3F
:104D70009AB2FB681A85FB685B8D9BB2013B9AB2C5
:104D8000FB685A85FB685B8D9BB2002B34D0FB68B7
:104D90001B8D002B30D17B690093BB6A00228021E0
:104DA000F86800F027F90346002B01D001234DE0FD
:104DB000FB685B8D9BB2FF2B0ED9FB68FF221A8527
:104DC000FB681B8DDAB27989002300934FF0807362
:104DD000F86800F0B7FA0FE0FB685B8D9AB2FB68E9
:104DE0001A85FB681B8DDAB27989002300934FF096
:104DF0000073F86800F0A6FAFB685B8D9BB2002B8D
:104E00009AD17A69B96AF86800F074F90346002B00
:104E100001D001231AE0FB681B682022DA61FB68DD
:104E20001B685968FB681A680B4B0B405360FB68A2
:104E3000202283F84120FB68002283F84220FB688F
:104E4000002283F84020002300E002231846183790
:104E5000BD4680BD0024008000E800FE80B586B01D
:104E600002AFF860084611461A4603467B810B469E
:104E70003B811346FB80FB88DAB27989204B009393
:104E80004FF08073F86800F05DFAFA69B969F86864
:104E900000F0F0F80346002B01D001232CE0FB8842
:104EA000012B05D13B89DAB2FB681B689A6215E0D9
:104EB0003B891B0A9BB2DAB2FB681B689A62FA69EB
:104EC000B969F86800F0D6F80346002B01D0012339
:104ED00012E03B89DAB2FB681B689A62FB690093B7
:104EE000BB6900228021F86800F084F80346002B9B
:104EF00001D0012300E0002318461037BD4680BDD5
:104F00000020008080B586B002AFF86008461146E8
:104F10001A4603467B810B463B811346FB80FB8888
:104F2000DAB27989204B00930023F86800F00AFA7E
:104F3000FA69B969F86800F09DF80346002B01D0C2
:104F400001232CE0FB88012B05D13B89DAB2FB68F9
:104F50001B689A6215E03B891B0A9BB2DAB2FB68B8
:104F60001B689A62FA69B969F86800F083F8034629
:104F7000002B01D0012312E03B89DAB2FB681B68E9
:104F80009A62FB690093BB6900224021F86800F037
:104F900031F80346002B01D0012300E0002318461E
:104FA0001037BD4680BD00BF0020008080B483B0B4
:104FB00000AF78607B681B689B6903F00203022BDB
:104FC00003D17B681B6800229A627B681B689B691F
:104FD00003F00103012B07D07B681B689A697B688B
:104FE0001B6842F001029A6100BF0C37BD465DF8B4
:104FF000047B704780B584B000AFF860B9603B6057
:105000001346FB7122E03B68B3F1FF3F1ED0FDF772
:1050100011FD0246BB69D31A3A689A4202D33B6833
:10502000002B13D1FB685B6C43F02002FB685A64D1
:10503000FB68202283F84120FB68002283F842208D
:10504000FB68002283F8402001230FE0FB681B6807
:105050009A69BB681340BA689A420CBF01230023C7
:10506000DBB21A46FB799A42CDD00023184610379E
:10507000BD4680BD80B584B000AFF860B9607A608D
:105080002CE07A68B968F86800F070F80346002BE5
:1050900001D001232AE0BB68B3F1FF3F1ED0FDF72A
:1050A000C9FC02467B68D31ABA689A4202D3BB682D
:1050B000002B13D1FB685B6C43F02002FB685A6441
:1050C000FB68202283F84120FB68002283F84220FD
:1050D000FB68002283F84020012307E0FB681B687F
:1050E0009B6903F00203022BCBD100231846103733
:1050F000BD4680BD80B584B000AFF860B9607A600D
:1051000028E07A68B968F86800F030F80346002BA8
:1051100001D0012326E0FDF78DFC02467B68D31AFF
:10512000BA689A4202D3BB68002B13D1FB685B6C50
:1051300043F02002FB685A64FB68202283F8412078
:10514000FB68002283F84220FB68002283F840209D
:10515000012307E0FB681B689B6903F02003202BF9
:10516000CFD1002318461037BD4680BD80B58AB028
:1051700000AFF860B9607A60002387F82730FB68D9
:105180001B689B69BB6100233B627B68FB61BB6959
:1051900003F01003002B75D0FB681B681022DA6146
:1051A00056E0BB68B3F1FF3F52D0FDF743FC024627
:1051B000FB69D31ABA689A4202D3BB68002B47D165
:1051C000FB681B685B6803F480437B61FB6893F8B2
:1051D0004230FB74FB681B689B6903F40043B3F522
:1051E000004F2ED17B69B3F5804F2AD0FB7C202B5A
:1051F00027D0FB681B685A68FB681B6842F4804232
:105200005A60FDF717FCF8611BE0FDF713FC02463E
:10521000FB69D31A192B14D9FB685B6C43F020028D
:10522000FB685A64FB68202283F84120FB68002257
:1052300083F84220FB68002283F84020012387F88E
:105240002730FB681B689B6903F02003202BDCD10F
:10525000FB681B689B6903F02003202B03D097F8A1
:105260002730002B9DD097F82730002B03D1FB6807
:105270001B682022DA613B6A43F004033B6201238E
:1052800087F82730FB681B689B69BB61BB6903F427
:105290008073002B0BD03B6A43F001033B62FB6839
:1052A0001B684FF48072DA61012387F82730BB69ED
:1052B00003F48063002B0BD03B6A43F008033B628E
:1052C000FB681B684FF48062DA61012387F827309E
:1052D000BB6903F40073002B0BD03B6A43F002035D
:1052E0003B62FB681B684FF40072DA61012387F8A8
:1052F000273097F82730002B1CD0F868FFF756FEB0
:10530000FB681B685968FB681A680D4B0B405360BB
:10531000FB685A6C3B6A1A43FB685A64FB6820229C
:1053200083F84120FB68002283F84220FB680022BA
:1053300083F8402097F8273018462837BD4680BDAF
:1053400000E800FE80B487B000AFF8607B600B46D9
:105350007B8113467B727B89C3F309027B7A1B0432
:1053600003F47F031A437B681A433B6A134323F019
:1053700000437B61FB681B685A683B6A5B0D03F462
:105380008061084B0B43DB4302EA0301FB681B68A7
:105390007A690A435A6000BF1C37BD465DF8047B3A
:1053A000704700BFFF63FF0380B483B000AF786035
:1053B00039607B6893F84130DBB2202B38D17B68B1
:1053C00093F84030012B01D1022332E07B680122A7
:1053D00083F840207B68242283F841207B681B6887
:1053E0001A687B681B6822F001021A607B681B68E0
:1053F0001A687B681B6822F480521A607B681B68FD
:1054000019687B681B683A680A431A607B681B68E6
:105410001A687B681B6842F001021A607B682022D0
:1054200083F841207B68002283F84020002300E0BD
:10543000022318460C37BD465DF8047B704780B4E4
:1054400085B000AF786039607B6893F84130DBB29B
:10545000202B39D17B6893F84030012B01D10223F6
:1054600033E07B68012283F840207B68242283F8A4
:1054700041207B681B681A687B681B6822F0010268
:105480001A607B681B681B68FB60FB6823F4706311
:10549000FB603B681B02FA681343FB607B681B6878
:1054A000FA681A607B681B681A687B681B6842F0A0
:1054B00001021A607B68202283F841207B68002269
:1054C00083F84020002300E0022318461437BD462D
:1054D0005DF8047B7047000080B485B000AF786051
:1054E0007B68002B41D14B4B1B6803F4C063B3F5C1
:1054F000806F31D1474BD3F88030464A23F4807314
:10550000C2F88030434B1B6823F4C063414A43F424
:1055100000731360404B1B68322202FB03F33F4AC7
:10552000A2FB03239B0C0133FB6002E0FB68013B01
:10553000FB60384B5B6903F48063B3F5806F02D185
:10554000FB68002BF2D1334B5B6903F48063B3F546
:10555000806F58D1032357E02E4BD3F880302D4A6B
:1055600023F48073C2F880304DE07B68B3F5007F90
:1055700041D1284B1B6803F4C063B3F5806F31D170
:10558000244BD3F88030234A43F48073C2F8803030
:10559000204B1B6823F4C0631E4A43F4007313605E
:1055A0001D4B1B68322202FB03F31C4AA2FB0323A0
:1055B0009B0C0133FB6002E0FB68013BFB60154B79
:1055C0005B6903F48063B3F5806F02D1FB68002B45
:1055D000F2D1104B5B6903F48063B3F5806F12D195
:1055E000032311E00B4BD3F880300A4A43F4807355
:1055F000C2F8803007E0074B1B6823F4C063054AFC
:1056000043F480631360002318461437BD465DF8E9
:10561000047B7047007000400400002083DE1B43C1
:1056200080B400AF054B9B68044A43F48043936009
:1056300000BFBD465DF8047B704700BF00700040AE
:1056400080B588B000AF78607B68002B01D1012362
:1056500006E37B681B6803F00103002B75D0974BB2
:105660009B6803F00C03BB61944BDB6803F00303FE
:105670007B61BB690C2B02D17B69032B02D0BB6918
:10568000082B0BD18D4B1B6803F40033002B5BD030
:105690007B685B68002B57D10123E1E27B685B6884
:1056A000B3F5803F06D1854B1B68844A43F48033B1
:1056B00013601DE07B685B68B3F5A02F0CD17F4BB6
:1056C0001B687E4A43F4802313607C4B1B687B4A33
:1056D00043F4803313600BE0784B1B68774A23F464
:1056E00080331360754B1B68744A23F48023136066
:1056F0007B685B68002B13D0FDF79CF9386108E0EC
:10570000FDF798F902463B69D31A642B01D90323AC
:10571000A6E26A4B1B6803F40033002BF0D014E0C0
:10572000FDF788F9386108E0FDF784F902463B6926
:10573000D31A642B01D9032392E2604B1B6803F454
:105740000033002BF0D100E000BF7B681B6803F042
:105750000203002B75D0594B9B6803F00C03BB610F
:10576000564BDB6803F003037B61BB690C2B02D152
:105770007B69022B02D0BB69042B1FD14F4B1B68E6
:1057800003F48063002B05D07B68DB68002B01D11C
:10579000012365E2494B5B6823F0FE427B681B698D
:1057A0001B06464913434B60454B1B681846FCF7E4
:1057B000E9FE0346002B43D0012351E27B68DB68FE
:1057C000002B23D03D4B1B683C4A43F4807313608D
:1057D000FDF730F9386108E0FDF72CF902463B6926
:1057E000D31A022B01D903233AE2344B1B6803F48A
:1057F0008063002BF0D0314B5B6823F0FE427B6866
:105800001B691B062D4913434B601AE02B4B1B6889
:105810002A4A23F480731360FDF70CF9386108E01D
:10582000FDF708F902463B69D31A022B01D903237D
:1058300016E2224B1B6803F48063002BF0D100E0DA
:1058400000BF7B681B6803F00803002B41D07B6816
:105850005B69002B1CD0194BD3F89430174A43F0E6
:105860000103C2F89430FDF7E5F8386108E0FDF770
:10587000E1F802463B69D31A022B01D90323EFE179
:105880000E4BD3F8943003F00203002BEFD020E04E
:105890000A4BD3F89430094A23F00103C2F894303C
:1058A000FDF7C8F838610DE0FDF7C4F802463B6922
:1058B000D31A022B06D90323D2E100BF0010024005
:1058C000080000208C4BD3F8943003F00203002B27
:1058D000EAD17B681B6803F00403002B00F0A6806C
:1058E0000023FB77844B9B6D03F08053002B01D189
:1058F000012300E00023002B0DD07F4B9B6D7E4ADF
:1059000043F0805393657C4B9B6D03F08053FB60A9
:10591000FB680123FB77794B1B6803F48073002B32
:1059200018D1764B1B68754A43F480731360FDF7FA
:1059300081F8386108E0FDF77DF802463B69D31A2B
:10594000022B01D903238BE16C4B1B6803F480739A
:10595000002BF0D07B689B68012B08D1664BD3F8F5
:105960009030654A43F00103C2F8903024E07B6830
:105970009B68052B10D1604BD3F890305E4A43F002
:105980000403C2F890305C4BD3F890305A4A43F08D
:105990000103C2F890300FE0574BD3F89030564ACD
:1059A00023F00103C2F89030534BD3F89030524AA1
:1059B00023F00403C2F890307B689B68002B16D05C
:1059C000FDF738F838610AE0FDF734F802463B6924
:1059D000D31A41F28832934201D9032340E1464B66
:1059E000D3F8903003F00203002BEDD015E0FDF763
:1059F00021F838610AE0FDF71DF802463B69D31A29
:105A000041F28832934201D9032329E13A4BD3F87A
:105A1000903003F00203002BEDD1FB7F012B05D169
:105A2000354B9B6D344A23F0805393657B681B682C
:105A300003F02003002B3CD07B689B69002B1CD01B
:105A40002D4BD3F898302C4A43F00103C2F898301C
:105A5000FCF7F0FF386108E0FCF7ECFF02463B6919
:105A6000D31A022B01D90323FAE0234BD3F8983041
:105A700003F00203002BEFD01BE01F4BD3F898304C
:105A80001D4A23F00103C2F89830FCF7D3FF3861B8
:105A900008E0FCF7CFFF02463B69D31A022B01D97D
:105AA0000323DDE0144BD3F8983003F00203002BFE
:105AB000EFD17B68DB69002B00F0D1800E4B9B6837
:105AC00003F00C030C2B00F08B807B68DB69022B4E
:105AD0005ED1094B1B68084A23F080731360FCF702
